:020000040800F2
:100000001808002091050008B5050008B90500088A
:10001000BD050008C1050008C50500080000000076
:10002000000000000000000000000000C9050008FA
:10003000CD05000800000000D105000807040008F5
:10004000D9050008DD050008E1050008E505000800
:10005000E9050008ED050008F1050008F5050008B0
:10006000F9050008FD05000801060008050600085E
:10007000090600080D06000811060008150600080C
:10008000190600081D0600082106000825060008BC
:10009000290600082D06000831060008350600086C
:1000A000390600083D06000841060008450600081C
:1000B000490600084D0600085106000855060008CC
:1000C000590600085D06000861060008650600087C
:1000D000690600086D06000871060008750600082C
:1000E000790600087D0600088106000880B55D4994
:1000F000086850F0010008605B4A13685B480340E1
:1001000013600B685A4803400B60086830F4802085
:100110000860106830F4FE0010605FF41F0055495D
:10012000086000F044F85FF000605349086001BDCA
:100130000020002000204C49086810F00C00002826
:1001400004D0042806D0082808D023E04B484C4AA5
:10015000106022E049484A4A10601EE00A6812F422
:100160007012086810F48030920C921C002804D1A0
:1001700044484243424802600BE00868800304D5CB
:10018000404842433E48026003E03C4842433C480A
:10019000026002E039483A4A106008683A49C0F300
:1001A0000310085C36490A68C2400A60704780B58F
:1001B00000F001F801BD82B0002001900020009005
:1001C0002849086850F480300860086810F400304E
:1001D00000900198401C01900098002803D10198DC
:1001E000B0F5A06FF1D10868800302D5012000901E
:1001F00001E0002000900098012831D123480268D6
:1002000052F01002026002689208920002600268D6
:1002100052F0020202601448026802600268026042
:10022000026852F480620260026832F47C1202605A
:10023000026852F4E81202600A6852F080720A60A2
:100240000A689201FCD5016889088900016001688B
:1002500051F002010160016811F00C010829FAD186
:1002600002B0704700100240041002400000FFF886
:10027000FFFFF6FE0810024008ED00E000127A00D1
:100280000000002000093D00040000200020024082
:1002900010B5464C206850F480402060642000F087
:1002A000C5F8206830F480402060642000F0BEF87B
:1002B00010BD80B53E490A6802F0FF020A600A6874
:1002C000C0B210430860FFF7E3FF01BD80B53749B6
:1002D0000A6832F480520A600A6832F400520A60F6
:1002E000C0B2FFF7E6FFFFF7D3FF01BD10B5040072
:1002F000022000F0B1F82D48016851F480510160EE
:10030000016831F4005101602000C0B2FFF7D1FF55
:1003100010BD10B5040003E02078FFF7E7FF641C70
:1003200020780028F8D110BD80B50120FFF7CEFF5E
:1003300001BD10B51D4C206830F48050206020684D
:1003400030F480402060282000F086F83020FFF74D
:10035000B0FF052000F080F83020FFF7AAFF05204D
:1003600000F07AF83020FFF7A4FF052000F074F8C1
:100370003020FFF79EFF052000F06EF8C220FFF747
:1003800098FF082000F068F8FFF7CEFF052000F086
:1003900063F80620FFF78DFF052000F05DF8FFF7FA
:1003A000C3FF206850F48050206010BD0C0C014049
:1003B0000C080140020052B2002A08D509011E4A69
:1003C00040B210F00F00104400F8041C03E00901D3
:1003D0001A4A40B21154704780B5411EB1F1807F76
:1003E00001D301200EE0401E154908600F215FF087
:1003F000FF30FFF7DFFF0020124908600720124995
:100400000860002002BD11490868002802D0086871
:10041000401E0860704780B5FFF78AFE0C480068F0
:100420000C49B0FBF1F0FFF7D7FF01BD07490860A9
:1004300008680028FCD1704718ED00E000E400E0F7
:1004400014E000E018E000E010E000E014000020FC
:100450000000002040420F0010B5040003E04FF4FC
:100460007A70FFF7E3FF2000441E0028F7D110BD8B
:100470001048016851F00C0101600F480F490860F5
:100480005FF033300E490860704780B5FFF7F0FF2A
:10049000FFF7C1FFFFF74DFF0C20FFF717FF0948DB
:1004A000FFF737FF4FF4FA70FFF7D6FFFFF73CFF77
:1004B000F2E7000018100240000033330408014046
:1004C000000C0140AC05000830B450F8041B79B1B1
:1004D0000268436802440830DC0744BFA9F1010404
:1004E000E31852F8045B43F8045B091FF9D1ECE709
:1004F00030BC704710B5074979441831064C7C442C
:10050000163404E00A68081D114488470146A142D8
:10051000F8D110BD0800000018000000ADFFFFFF7B
:10052000180000005400000000000020000000003F
:1005300000F00DF8002801D0FFF7DCFFAFF30080DA
:100540000020AFF30080FFF7A0FF00F002F80120C9
:10055000704700F001B800000746384600F002F886
:10056000FBE7000080B5AFF30080024A11001820BD
:10057000ABBEFBE72600020000A24A040000000018
:100580000000000001020304060708090000000043
:100590000148804701480047ED000008A105000818
:1005A000AFF30080AFF30080FFF7C2FF5445535410
:1005B00000000000FFF7FEBFFFF7FEBFFFF7FEBF22
:1005C000FFF7FEBFFFF7FEBFFFF7FEBFFFF7FEBF5F
:1005D000FFF7FEBFFFF717BFFFF7FEBFFFF7FEBF36
:1005E000FFF7FEBFFFF7FEBFFFF7FEBFFFF7FEBF3F
:1005F000FFF7FEBFFFF7FEBFFFF7FEBFFFF7FEBF2F
:10060000FFF7FEBFFFF7FEBFFFF7FEBFFFF7FEBF1E
:10061000FFF7FEBFFFF7FEBFFFF7FEBFFFF7FEBF0E
:10062000FFF7FEBFFFF7FEBFFFF7FEBFFFF7FEBFFE
:10063000FFF7FEBFFFF7FEBFFFF7FEBFFFF7FEBFEE
:10064000FFF7FEBFFFF7FEBFFFF7FEBFFFF7FEBFDE
:10065000FFF7FEBFFFF7FEBFFFF7FEBFFFF7FEBFCE
:10066000FFF7FEBFFFF7FEBFFFF7FEBFFFF7FEBFBE
:10067000FFF7FEBFFFF7FEBFFFF7FEBFFFF7FEBFAE
:04068000FFF7FEBFC3
:04000005080005A149
:00000001FF
